:0200000460009A
:10000000464346420004015600000000010303007D
:1000100000000000000000000000000000000000E0
:1000200000000000000000000000000000000000D0
:1000300000000000000000000000000000000000C0
:1000400000000000000406000000000000000000A6
:100050000000800000000000000000000000000020
:100060000000000000000000000000000000000090
:100070000000000000000000000000000000000080
:10008000EB04180A063204260000000000000000FD
:100090000000000000000000000000000000000060
:1000A0000000000000000000000000000000000050
:1000B0000000000000000000000000000000000040
:1000C0000000000000000000000000000000000030
:1000D0000000000000000000000000000000000020
:1000E0000000000000000000000000000000000010
:1000F0000000000000000000000000000000000000
:1001000000000000000000000000000000000000EF
:1001100000000000000000000000000000000000DF
:1001200000000000000000000000000000000000CF
:1001300000000000000000000000000000000000BF
:1001400000000000000000000000000000000000AF
:10015000000000000000000000000000000000009F
:10016000000000000000000000000000000000008F
:10017000000000000000000000000000000000007F
:10018000000000000000000000000000000000006F
:10019000000000000000000000000000000000005F
:1001A000000000000000000000000000000000004F
:1001B000000000000000000000000000000000003F
:1001C000000100000010000000000000000000001E
:1001D000000004000000000000000000000000001B
:1001E000000000000000000000000000000000000F
:1001F00000000000000000000000000000000000FF
:1002000000000000000000000000000000000000EE
:1002100000000000000000000000000000000000DE
:10100000D10020410020006000000000000000002E
:1010100020100060001000600000000000000000D0
:10102000000000600000800000000000FFFFFFFFE4
:1010300000000000000000000000000000000000B0
:1010400000000000000000000000000000000000A0
:101050000000000000000000000000000000000090
:101060000000000000000000000000000000000080
:10200000806120206189006099310160358900601C
:102010003589006035890060358900600000000066
:10202000000000000000000000000000A981006026
:1020300035890060000000005581006085AB0060BC
:102040004D8200604D8200604D8200604D820060D4
:102050004D8200604D8200604D8200604D820060C4
:102060004D8200604D8200604D8200604D820060B4
:102070004D8200604D8200604D8200604D820060A4
:1022C00090F800F06DE9024520F007016FF0000C76
:1022D00010F0070491F820F040F049804FF000041E
:1022E0006FF00700D1E9002391F840F000F10800F9
:1022F00082FA4CF2A4FA8CF283FA4CF3A2FA8CF331
:102300004BBBD1E9022382FA4CF200F10800A4FA97
:102310008CF283FA4CF3A2FA8CF3E3B9D1E90423EB
:1023200082FA4CF200F10800A4FA8CF283FA4CF322
:10233000A2FA8CF37BB9D1E9062301F1200182FADC
:102340004CF200F10800A4FA8CF283FA4CF3A2FAE2
:102350008CF3002BC6D0002A04BF04301A4612BAF0
:10236000B2FA82F2FDE8024500EBD2007047D1E9F3
:10237000002304F00305C4F100004FEAC50514F082
:10238000040F91F840F00CFA05F562EA05021CBF53
:1023900063EA050362464FF00004A9E7000000006D
:1023A00001F0FF01102A2BDB10F0070F08D010F806
:1023B000013B013A8B422DD010F0070F42B3F6D10A
:1023C000F0B441EA012141EA014122F007047FF023
:1023D00000070023F0E80256083C85EA010586EA7A
:1023E000010685FA47F5A3FA87F586FA47F6A5FAB6
:1023F00087F68EB9EED1F0BC01F0FF0102F00702C2
:1024000032B110F8013B013A83EA010313B1F8D16C
:102410000020704701387047002D06BF354603384D
:10242000073815F0010F07D1013015F4807F02BF86
:10243000013015F4C03F0130F0BC0138704700BFD7
:1024400081F0004102E000BF83F0004330B54FEA65
:1024500041044FEA430594EA050F08BF90EA020FD2
:102460001FBF54EA000C55EA020C7FEA645C7FEA65
:10247000655C00F0E2804FEA5454D4EB5555B8BF88
:102480006D420CDD2C4480EA020281EA030382EAF9
:10249000000083EA010180EA020281EA0303362D8B
:1024A00088BF30BD11F0004F4FEA01314FF4801C5E
:1024B0004CEA113102D0404261EB410113F0004F70
:1024C0004FEA03334CEA133302D0524263EB430327
:1024D00094EA050F00F0A780A4F10104D5F1200EC5
:1024E0000DDB02FA0EFC22FA05F2801841F1000120
:1024F00003FA0EF2801843FA05F359410EE0A5F1F4
:1025000020050EF1200E012A03FA0EFC28BF4CF024
:10251000020C43FA05F3C01851EBE37101F00045DA
:1025200007D54FF0000EDCF1000C7EEB00006EEBE7
:102530000101B1F5801F1BD3B1F5001F0CD3490871
:102540005FEA30004FEA3C0C04F101044FEA4452C8
:1025500012F5800F80F09A80BCF1004F08BF5FEA4F
:10256000500C50F1000041EB045141EA050130BD2F
:102570005FEA4C0C404141EB0101013C28BFB1F541
:10258000801FE9D291F0000F04BF01460020B1FA8C
:1025900081F308BF2033A3F10B03B3F120020CDA5F
:1025A0000C3208DD02F1140CC2F10C0201FA0CF03D
:1025B00021FA02F10CE002F11402D8BFC2F1200CA2
:1025C00001FA02F120FA0CFCDCBF41EA0C01904058
:1025D000E41AA2BF01EB0451294330BD6FEA0404A1
:1025E0001F3C1CDA0C340EDC04F11404C4F120028C
:1025F00020FA04F001FA02F340EA030021FA04F39E
:1026000045EA030130BDC4F10C04C4F1200220FAF4
:1026100002F001FA04F340EA0300294630BD21FA32
:1026200004F0294630BD94F0000F83F4801306BFF8
:1026300081F480110134013D4EE77FEA645C18BFEC
:102640007FEA655C29D094EA050F08BF90EA020F83
:1026500005D054EA000C04BF1946104630BD91EA7B
:10266000030F1EBF0021002030BD5FEA545C05D17E
:102670004000494128BF41F0004130BD14F58004BD
:102680003CBF01F5801130BD01F0004545F0FE4131
:1026900041F470014FF0000030BD7FEA645C1ABF66
:1026A000194610467FEA655C1CBF0B46024650EA9D
:1026B000013406BF52EA033591EA030F41F40021C9
:1026C00030BD00BF90F0000F04BF0021704730B54F
:1026D0004FF4806404F132044FF000054FF0000124
:1026E00050E700BF90F0000F04BF0021704730B5E5
:1026F0004FF4806404F1320410F0004548BF4042BA
:102700004FF000013EE700BF42004FEAE2014FEA0E
:1027100031014FEA02701FBF12F07F4393F07F4FE9
:1027200081F06051704732F07F4208BF704793F0EC
:102730007F4F04BF41F40021704730B54FF46074FF
:1027400001F0004521F000411CE700BF50EA010202
:1027500008BF704730B54FF000050AE050EA0102AB
:1027600008BF704730B511F0004502D5404261EB1B
:1027700041014FF4806404F132045FEA915C3FF45C
:10278000D8AE4FF003025FEADC0C18BF03325FEAF9
:10279000DC0C18BF033202EBDC02C2F1200300FAAA
:1027A00003FC20FA02F001FA03FE40EA0E0021FACF
:1027B00002F11444BDE600BF70B54FF0FF0C4CF4BD
:1027C000E06C1CEA11541DBF1CEA135594EA0C0F6F
:1027D00095EA0C0F00F0DEF82C4481EA030621EAAA
:1027E0004C5123EA4C5350EA013518BF52EA0335E5
:1027F00041F4801143F4801338D0A0FB02CE4FF097
:102800000005E1FB02E506F00042E0FB03E54FF0C6
:102810000006E1FB03569CF0000F18BF4EF0010EBE
:10282000A4F1FF04B6F5007F64F5407404D25FEABA
:102830004E0E6D4146EB060642EAC62141EA55516D
:102840004FEAC52040EA5E504FEACE2EB4F1FD0CAF
:1028500088BFBCF5E06F1ED8BEF1004F08BF5FEA2D
:10286000500E50F1000041EB045170BD06F00046DF
:1028700046EA010140EA020081EA0301B4EB5C048C
:10288000C2BFD4EB0C0541EA045170BD41F4801184
:102890004FF0000E013C00F3AB8014F1360FDEBFA9
:1028A000002001F0004170BDC4F10004203C35DA85
:1028B0000C341BDC04F11404C4F1200500FA05F308
:1028C00020FA04F001FA05F240EA020001F00042A9
:1028D00021F0004110EBD37021FA04F642EB06011F
:1028E0005EEA430E08BF20EAD37070BDC4F10C0449
:1028F000C4F1200500FA04F320FA05F001FA04F20D
:1029000040EA020001F0004110EBD37041F10001F8
:102910005EEA430E08BF20EAD37070BDC4F1200503
:1029200000FA05F24EEA020E20FA04F301FA05F26B
:1029300043EA020321FA04F001F0004121FA04F213
:1029400020EA020000EBD3705EEA430E08BF20EAE3
:10295000D37070BD94F0000F0FD101F0004640001D
:1029600041EB010111F4801F08BF013CF7D041EA9F
:10297000060195F0000F18BF704703F000465200A3
:1029800043EB030313F4801F08BF013DF7D043EA74
:102990000603704794EA0C0F0CEA135518BF95EA2A
:1029A0000C0F0CD050EA410618BF52EA4306D1D1B1
:1029B00081EA030101F000414FF0000070BD50EAD0
:1029C000410606BF1046194652EA430619D094EA5A
:1029D0000C0F02D150EA013613D195EA0C0F05D144
:1029E00052EA03361CBF104619460AD181EA030198
:1029F00001F0004141F0FE4141F470014FF0000050
:102A000070BD41F0FE4141F4780170BD70B54FF0EA
:102A1000FF0C4CF4E06C1CEA11541DBF1CEA13556A
:102A200094EA0C0F95EA0C0F00F0A7F8A4EB05044C
:102A300081EA030E52EA03354FEA013100F0888043
:102A40004FEA03334FF0805545EA131343EA12630C
:102A50004FEA022245EA111545EA10654FEA0026C1
:102A60000EF000419D4208BF964244F1FD0404F57A
:102A7000407402D25B084FEA3202B61A65EB0305D6
:102A80005B084FEA32024FF480104FF4002CB6EB93
:102A9000020E75EB030E22BFB61A754640EA0C0013
:102AA0005B084FEA3202B6EB020E75EB030E22BF53
:102AB000B61A754640EA5C005B084FEA3202B6EB94
:102AC000020E75EB030E22BFB61A754640EA9C0053
:102AD0005B084FEA3202B6EB020E75EB030E22BF23
:102AE000B61A754640EADC0055EA060E18D04FEAE1
:102AF000051545EA16754FEA06164FEAC30343EA81
:102B000052734FEAC2025FEA1C1CC0D111F4801F4D
:102B10000BD141EA00014FF000004FF0004CB6E746
:102B200011F4801F04BF01430020B4F1FD0C88BFE5
:102B3000BCF5E06F3FF6AFAEB5EB030C04BFB6EBF0
:102B4000020C5FEA500C50F1000041EB045170BDE3
:102B50000EF0004E4EEA113114EB5C04C2BFD4EB10
:102B60000C0541EA045170BD41F480114FF0000E94
:102B7000013C90E645EA060E8DE60CEA135594EA10
:102B80000C0F08BF95EA0C0F3FF43BAF94EA0C0F13
:102B90000AD150EA01347FF434AF95EA0C0F7FF488
:102BA00025AF104619462CE795EA0C0F06D152EADC
:102BB00003353FF4FDAE1046194622E750EA4106C0
:102BC00018BF52EA43067FF4C5AE50EA41047FF4D1
:102BD0000DAF52EA43057FF4EBAE12E74FF0FF3C36
:102BE00006E000BF4FF0010C02E000BF4FF0010C07
:102BF0004DF804CD4FEA410C7FEA6C5C4FEA430C80
:102C000018BF7FEA6C5C1BD001B050EA410C0CBFCE
:102C100052EA430C91EA030F02BF90EA020F002030
:102C2000704710F1000F91EA030F58BF994208BF97
:102C300090422CBFD8176FEAE37040F00100704754
:102C40004FEA410C7FEA6C5C02D150EA013C07D1AB
:102C50004FEA430C7FEA6C5CD6D152EA033CD3D0F6
:102C60005DF8040B704700BF8446104662468C46F0
:102C70001946634600E000BF01B5FFF7B7FF002823
:102C800048BF10F1000F01BD4DF808EDFFF7F4FF4C
:102C90000CBF012000205DF808FB00BF4DF808EDD7
:102CA000FFF7EAFF34BF012000205DF808FB00BFFA
:102CB0004DF808EDFFF7E0FF94BF012000205DF81C
:102CC00008FB00BF4DF808EDFFF7CEFF94BF0120D1
:102CD00000205DF808FB00BF4DF808EDFFF7C4FFCA
:102CE00034BF012000205DF808FB00BF4FEA41021D
:102CF00012F5001215D211D56FF47873B3EB62524E
:102D000012D94FEAC12343F0004343EA505311F074
:102D1000004F23FA02F018BF404270474FF0000006
:102D2000704750EA013005D111F0004008BF6FF044
:102D3000004070474FF00000704700BF4FEA41026B
:102D4000B2F1E04324BFB3F5001CDCF1FE5C0DD909
:102D500001F0004C4FEAC0024CEA5070B2F1004F53
:102D600040EB830008BF20F00100704711F0804F56
:102D700021D113F13872BCBF01F00040704741F41B
:102D800080114FEA5252C2F11802C2F1200C10FA1F
:102D90000CF320FA02F018BF40F001004FEAC12303
:102DA0004FEAD32303FA0CFC40EA0C0023FA02F3A7
:102DB0004FEA4303CCE77FEA625307D150EA01337D
:102DC0001EBF4FF0FE4040F44000704701F000404D
:102DD00040F0FE4040F40000704700BF80F000402B
:102DE00002E000BF81F0004142001FBF5FEA4103E3
:102DF00092EA030F7FEA226C7FEA236C6AD04FEAE3
:102E00001262D2EB1363C1BFD21841404840414027
:102E1000B8BF5B42192B88BF704710F0004F40F4D9
:102E2000000020F07F4018BF404211F0004F41F4F5
:102E3000000121F07F4118BF494292EA030F3FD0C1
:102E4000A2F1010241FA03FC10EB0C00C3F12003D4
:102E500001FA03F100F0004302D5494260EB400063
:102E6000B0F5000F13D3B0F1807F06D340084FEACE
:102E7000310102F10102FE2A51D2B1F1004F40EBC3
:102E8000C25008BF20F0010040EA0300704749002B
:102E900040EB0000013A28BFB0F5000FEDD2B0FAC8
:102EA00080FCACF1080CB2EB0C0200FA0CF0AABFEB
:102EB00000EBC25052421843BCBFD0401843704789
:102EC00092F0000F81F4000106BF80F4000001328F
:102ED000013BB5E74FEA41037FEA226C18BF7FEA66
:102EE000236C21D092EA030F04D092F0000F08BFA8
:102EF0000846704790EA010F1CBF0020704712F08F
:102F00007F4F04D1400028BF40F00040704712F1CD
:102F100000723CBF00F50000704700F0004343F032
:102F2000FE4040F4000070477FEA226216BF084668
:102F30007FEA23630146420206BF5FEA412390EA2B
:102F4000010F40F4800070474FF0000304E000BF21
:102F500010F0004348BF40425FEA000C08BF7047D2
:102F600043F0964301464FF000001CE050EA010296
:102F700008BF70474FF000030AE000BF50EA0102AB
:102F800008BF704711F0004302D5404261EB410198
:102F90005FEA010C02BF84460146002043F0B643BD
:102FA00008BFA3F18053A3F50003BCFA8CF2083AE2
:102FB000A3EBC25310DB01FA02FC634400FA02FCEB
:102FC000C2F12002BCF1004F20FA02F243EB0200F2
:102FD00008BF20F00100704702F1200201FA02FC54
:102FE000C2F1200250EA4C0021FA02F243EB020047
:102FF00008BF20EADC7070474FF0FF0C1CEAD0528B
:103000001EBF1CEAD15392EA0C0F93EA0C0F6FD04B
:103010001A4480EA010C400218BF5FEA41211ED029
:103020004FF0006343EA501043EA5111A0FB013115
:103030000CF00040B1F5000F3EBF490041EAD371EA
:103040005B0040EA010062F17F02FD2A1DD8B3F166
:10305000004F40EBC25008BF20F00100704790F0D5
:10306000000F0CF0004C08BF49024CEA502040EA27
:1030700051207F3AC2BFD2F1FF0340EAC2507047ED
:1030800040F400004FF00003013A5DDC12F1190F2B
:10309000DCBF00F000407047C2F10002410021FA9D
:1030A00002F1C2F1200200FA02FC5FEA310040F1B5
:1030B000000053EA4C0308BF20EADC70704792F02E
:1030C000000F00F0004C02BF400010F4000F013A66
:1030D000F9D040EA0C0093F0000F01F0004C02BF61
:1030E000490011F4000F013BF9D041EA0C018FE7D0
:1030F0000CEAD15392EA0C0F18BF93EA0C0F0AD0D6
:1031000030F0004C18BF31F0004CD8D180EA0100FB
:1031100000F00040704790F0000F17BF90F0004F94
:10312000084691F0000F91F0004F14D092EA0C0F76
:1031300001D142020FD193EA0C0F03D14B0218BF09
:10314000084608D180EA010000F0004040F0FE404F
:1031500040F40000704740F0FE4040F440007047EB
:103160004FF0FF0C1CEAD0521EBF1CEAD15392EA6A
:103170000C0F93EA0C0F69D0A2EB030280EA010C5A
:1031800049024FEA402037D04FF0805343EA1111F3
:1031900043EA10130CF000408B4238BF5B0042F151
:1031A0007D024FF4000C8B4224BF5B1A40EA0C00F6
:1031B000B3EB510F24BFA3EB510340EA5C00B3EB28
:1031C000910F24BFA3EB910340EA9C00B3EBD10F16
:1031D00024BFA3EBD10340EADC001B0118BF5FEA68
:1031E0001C1CE0D1FD2A3FF650AF8B4240EBC25091
:1031F00008BF20F0010070470CF0004C4CEA502052
:103200007F32C2BFD2F1FF0340EAC250704740F4A0
:1032100000004FF00003013A37E792F0000F00F092
:10322000004C02BF400010F4000F013AF9D040EA10
:103230000C0093F0000F01F0004C02BF490011F4A4
:10324000000F013BF9D041EA0C0195E70CEAD1539C
:1032500092EA0C0F08D142027FF47DAF93EA0C0F83
:103260007FF470AF084676E793EA0C0F04D14B0267
:103270003FF44CAF08466EE730F0004C18BF31F019
:10328000004CCAD130F000427FF45CAF31F0004313
:103290007FF43CAF5FE700BF4FEA4002B2F1FE4F60
:1032A0000FD34FF09E03B3EB12620DD94FEA002308
:1032B00043F0004310F0004F23FA02F018BF4042E1
:1032C00070474FF00000704712F1610F01D14202C8
:1032D00005D110F0004008BF6FF0004070474FF07C
:1032E000000070477BB972B90029BEBF00204FF0C3
:1032F000004106E008BF00281CBF6FF000414FF0FE
:10330000FF3000F057B8ADF1080C6DE904CE00298C
:1033100009DB002B1ADB00F0E9F8DDF804E0DDE959
:10332000022304B07047404261EB4101002B1BDBDC
:1033300000F0DCF8DDF804E0DDE9022304B04042EF
:1033400061EB4101524263EB43037047524263EB2E
:10335000430300F0CBF8DDF804E0DDE9022304B01C
:10336000404261EB41017047524263EB430300F07E
:10337000BDF8DDF804E0DDE9022304B0524263EB5E
:103380004303704753B94AB9002908BF00281CBF3E
:103390004FF0FF314FF0FF3000F00CB8ADF1080CEA
:1033A0006DE904CE00F0A2F8DDF804E0DDE90223C7
:1033B00004B07047704700BF844641EA000313F031
:1033C00003036DD1403A41D351F8043B40F8043B2C
:1033D00051F8043B40F8043B51F8043B40F8043BEF
:1033E00051F8043B40F8043B51F8043B40F8043BDF
:1033F00051F8043B40F8043B51F8043B40F8043BCF
:1034000051F8043B40F8043B51F8043B40F8043BBE
:1034100051F8043B40F8043B51F8043B40F8043BAE
:1034200051F8043B40F8043B51F8043B40F8043B9E
:1034300051F8043B40F8043B51F8043B40F8043B8E
:1034400051F8043B40F8043B403ABDD2303211D32E
:1034500051F8043B40F8043B51F8043B40F8043B6E
:1034600051F8043B40F8043B51F8043B40F8043B5E
:10347000103AEDD20C3205D351F8043B40F8043B2E
:10348000043AF9D2043208D0D2071CBF11F8013B2C
:1034900000F8013B01D30B8803806046704700BFF2
:1034A000082A13D38B078DD010F003038AD0C3F101
:1034B0000403D21ADB071CBF11F8013B00F8013BE3
:1034C00080D331F8023B20F8023B7BE7043AD9D3A2
:1034D000013A11F8013B00F8013BF9D20B78037077
:1034E0004B7843708B788370604670472DE9F047C6
:1034F00086468C460846089E154674461946002B9B
:1035000040F0C2808542B2FA82F245D94AB1C2F196
:10351000200300FA02FC2EFA03F3954043EA0C0C58
:1035200094404FEA154EA8B2BCFBFEF8230C0EFBEC
:1035300018CC08FB00F943EA0C43994528D9EB184D
:1035400008F1FF3704D2994502D9A8F102072B44AC
:10355000A3EB0903A4B2B3FBFEFC0EFB1C330CFB74
:1035600000F044EA0344A04214D92C190CF1FF33B3
:1035700004D2A04202D9ACF102032C44241A43EA3B
:1035800007401EB1D440002334607360BDE8F0876B
:103590004746DDE76346F1E792BB431B01214FEA53
:1035A000154EAFB2B3FBFEFC200C0EFB1C330CFB24
:1035B00007F840EA0343984562D9EB180CF1FF3055
:1035C00004D2984502D9ACF102002B44A3EB0803C6
:1035D000A4B2B3FBFEFC0EFB1C330CFB07F744EA62
:1035E0000344A7424ED92C190CF1FF3304D2A74251
:1035F00002D9ACF102032C44E41B43EA0040C0E7CB
:10360000C2F1200320FA03F1954090402EFA03F313
:1036100003434FEA154EAFB2B1FBFEFC0EFB1C108C
:10362000190C0CFB07F841EA0041884504FA02F442
:1036300022D969180CF1FF3004D2884502D9ACF1C7
:1036400002002944A1EB08019BB2B1FBFEFC0EFB7A
:103650001C110CFB07F743EA01439F420ED9EB18FC
:103660000CF1FF3104D29F4202D9ACF102012B448C
:10367000DB1B41EA004192E76046E3E76146F7E77A
:103680006046A3E76346B7E7834206D916B900212F
:1036900008467BE7C6E900E0F9E7B3FA83F78FB99C
:1036A000834201D3724508D8BEEB020460EB0303EA
:1036B00001209C461EB9002168E73846FAE7C6E9B2
:1036C000004CF8E7C7F1200CBB4022FA0CF41C4375
:1036D0002EFA0CF120FA0CF3B84001434FEA1449DA
:1036E0000EFA07F5B3FBF9F81FFA84FE09FB183050
:1036F0000B0C08FB0EFA43EA00439A4502FA07F264
:1037000040D9E31808F1FF3004D29A4502D9A8F154
:1037100002002344A3EB0A0389B2B3FBF9F809FBC7
:10372000183308FB0EFE41EA03418E452CD961187F
:1037300008F1FF3304D28E4502D9A8F102032144D7
:1037400043EA0040A0FB0298A1EB0E014145CE46A2
:10375000434602D306D14D4504D2B9EB020E68EBC5
:1037600004030138002EA6D0B5EB0E0261EB030175
:1037700001FA0CFC22FA07F34CEA0303F940C6E90C
:10378000003198E74046C5E74346D9E7000000000E
:103790002DE9F04F89B088461546D0E900630393C0
:1037A00083890593B36806AA039930465B689847F6
:1037B000002831DB4FF0FF3ADFF87C90DDE9064B63
:1037C000A8FB042308FB0B3804920498414618A375
:1037D000D3E90023FFF7D6FD049B07469A4579EB12
:1037E00008031CD3A5FB044305FB0B35204610A39F
:1037F000D3E900232946FFF7C5FDA245034679EB2F
:1038000005050CD38742B2680CD305993046009168
:10381000039914683A46A04709B0BDE8F08F6FF0ED
:103820008500F9E76FF01500F6E700BFAFF3008001
:1038300000CA9A3B00000000FFC99A3B000000004C
:103840002DE9F04F02234E4D4E4F85B04E48EB60B0
:10385000AF600AF04BFC00234FF400724B49009319
:10386000052349480AF05CFC49494A480AF0BEFB76
:10387000002149F640400BF0BDFD474E304610F0A8
:10388000A2FE18B9316845480EF03BFFB3684449C1
:103890001B6841489847021E03DA002141480EF098
:1038A00030FF0021DFF800B14FF000084FF00009B1
:1038B00003910A2200233D48364CCDE900890CF0E3
:1038C000B1FA0399B1F5FA7F01F1010A0ADA21464A
:1038D0002D48C4F810B010F0DAFE34480CF0EEFABF
:1038E0005146E1E7A1F5FA70FEF7FCFE20A3D3E90B
:1038F0000023FEF761FF02460B461FA1D1E900013C
:10390000FEF7A2FDFFF71AFA214620611E4810F0CB
:10391000BEFE26480CF0D2FA40F2DC5351469A45DE
:10392000C2D1DFF888A0DFF858B00A220023504641
:10393000CDE900890CF076FA02236B600C232B8210
:10394000B368594614485B689847011E03DA184863
:103950000EF0D7FEE9E73888FFF7F6FA0D49206147
:10396000094810F094FE50460CF0A8FADDE700BFBD
:103970006666666666661040000000000004B0409F
:10398000E83B202088422020403420200045202091
:10399000B53A0060FC3B2020E04901606B6D01609E
:1039A0002E5101608F6D016000208045082C202081
:1039B000B16D0160000000001F292DE9F843164693
:1039C0004468036952D0202945D01E295AD158880D
:1039D000FEF788FE2EA3D3E90023FEF7EDFE0022BA
:1039E000334B04460D46FFF759F900284DD12046C8
:1039F000294629A3D3E90023FFF76EF9002844D113
:103A000029462046FFF772F90746FEF76BFE02468D
:103A10000B4620462946FEF717FD21A3D3E90023D4
:103A2000FEF7CAFE0022224B80468946FFF736F990
:103A300058BB4046494618A3D3E90023FFF74CF989
:103A4000044610BB404649463760FFF74FF97060A7
:103A50002046BDE8F8839B881420228953435843AD
:103A6000FEF740FE10A3D3E90023B6E7DA88D10BB6
:103A700017BF52420122DA804FF0FF32DB882089E3
:103A80005343ECE76FF08500E3E76FF02100E0E7D8
:103A9000FCA9F1D24D62703F0000C0FFFFFFDF4183
:103AA0000000000080842E41F168E388B5F8E43E10
:103AB0000000E0C138B51E490069FFF751FB1D4900
:103AC000FFF79AFA1B49FFF78FF91B4DFFF7E4FB4D
:103AD0000446014619480EF014FE2968224618488B
:103AE000FFF756FE011E02DA16480EF00AFE29689C
:103AF00022461548FFF74CFE011E02DA13480EF06D
:103B000000FE296822461248FFF742FE011E02DA33
:103B100010480EF0F6FD296822460F48FFF738FEE0
:103B2000011E04DA0D48BDE838400EF0EABD38BD8C
:103B30000020804500247449B0292020239401608E
:103B400068510160B66C016058510160E46C01601D
:103B500048510160116D0160385101603E6D016096
:103B60002DE9F04F91B005460E46009302F0040394
:103B7000DDF868900193C2F3C2030292013304930B
:103B8000830740F0FE81041D30B1072909D86FF08A
:103B90001B0011B0BDE8F08F01F00706341DC6F11F
:103BA00008064FF00008009B4FF0040B4FF0FF3267
:103BB000591E47464346DA46CDF80C800DB10098B1
:103BC00020600498002800F3E1809C48DDF800C0E4
:103BD000844503D39A488445C0F0D880DDF808C0F6
:103BE000A4EB050E1CF0020F4FEA9E0000F0E980E6
:103BF0004FF0000CD3E07A2864D84B280FD8472820
:103C000060D829282FD825285BD05BD820287FD0E2
:103C1000A0F12309D9F1000343EB090378E0A0F1F7
:103C20004C0EBEF12E0F4DD8DFE80EF0724C4C4C0E
:103C30004C4C4C4C4C4C4C4C4E4C4C4C4C4C4C4CC2
:103C40004C5C4C4E4E5C5C5C724E6F4C724C184E31
:103C5000184C4C817E4E4C4C4E4C7E000020002374
:103C60004FF0040B3CE0A0F12A0E01205FFA8EFE1B
:103C700000FA0EFE4FF6DA701EEA000F48D11EF071
:103C800062502FD11EF0010342D0013CCBF1000E57
:103C90005C4404EA0E04002D5ED0AAEB050EA64497
:103CA0007645FFF474AF002868D1BAF1040F43D110
:103CB000E14659F8040B20600434CC464FF0040A66
:103CC00026E0013A002323E011F8013C6C2B30D1AF
:103CD00011F8023C00206C2B0346C1D14FF0080BB9
:103CE000DA46D2E70CF10709073429F0070C24F073
:103CF0000704FCE802AB35B105982044B0423FF61A
:103D000046AFC4E900AB083400234FF0080BDA4695
:103D100011F8010F002800F0BC80002B7FF46BAF7E
:103D20002528F5D1013201234FF0040BEFE71846A7
:103D300095E700200346A8E7BAF1080F40F09B8002
:103D40000CF1070929F0070CFCE8029AC4E9009A73
:103D500008344FF0080ADBE780B9BAF1040F02D14A
:103D60000CF10409A8E7BAF1080F40F084800CF1C7
:103D7000070929F0070909F1080CE9E70498E14669
:103D80000138049059F8040B009017E70298800757
:103D900048D5A4EB050E4FF0010C4FEA9E00BEF58E
:103DA000007F1DD3274940F27B23274A27480EF086
:103DB00054FF27480EF051FF40F27B2122480EF0BD
:103DC00045FF0F2F0ED8002D46D007F1400CEC44D4
:103DD0000CF8200C0CF8102C03980130039020E014
:103DE0000F2F0CD917494FF42073174A17480EF0BC
:103DF00034FF18480EF031FF4FF42071DEE7BDB1FB
:103E000007F1400EC0B2EE440EF8200C0EF8102C54
:103E1000BCF1000FE0D060F07F0008F101080EF85F
:103E2000200C0137C5F108000434CC4605906FE73B
:103E3000BCF1000F10D00136F3E700BFC8470160A6
:103E4000C898016072700160CD6D0160FB6D01600A
:103E5000186E0160396E0160019802360028E0D1C9
:103E600000980592CDE90631FEF72AFA059A064434
:103E7000DDE90631D5E740F2C523434A43494448CA
:103E80000EF0EBFE514643480EF0E7FE40F2C5212E
:103E900094E7631BB3F5806F0CD33C4940F2D12308
:103EA000394A3B480EF0D9FE3B480EF0D6FE40F2B0
:103EB000D12183E71DB9A6F10804E01869E69B0843
:103EC000019A28602B709DF80C30C2B1EB7085F818
:103ED0000280B8F1000F05D008A80022C5F1010C3E
:103EE00097420ED1C5F101030DF120094FF0000AF0
:103EF0000DF1300B0293574512D1601B49E66B70F0
:103F0000E5E710F8013B190608D504EB0C0E03F0A9
:103F10007F037645FFF43BAE04F8013B0132DFE757
:103F2000B8F1000F03D099F90020002A17DB019B9C
:103F3000D3B11AF80B2004F8012B0022029B981829
:103F400020448642FFF423AE99F80000009904F85B
:103F5000010B20460392FFF72FFA039A14440AF14B
:103F6000010A09F10109C6E799F8002055F8223045
:103F70000093019B009845F82230FEF7A1F9421CFE
:103F8000DCE76FF00D0004E6CD6D0160727001603A
:103F9000FB6D0160536E0160686E01602DE9F04FAA
:103FA00097B0044600AFD7F880A0FB61C7E90A12BA
:103FB00058B9AB494FF46573AA4AAB480EF04DFEB1
:103FC0004FF46571A7480EF041FECAF3C0037B6150
:103FD000BB6A53B9037846788078BD6A00EB8300EA
:103FE0002044B54219D3031BBB62E37894F802B0B6
:103FF000BB61BBF1000F02D01AF0010F16D1BB69F3
:1040000053BBFB6A1BB1FA692046B96A9847BD6A7F
:1040100028465C37BD46BDE8F08F00F10108013548
:104020004046FEF74DF901304044DAE723786268F4
:104030007B629B003A623B617B6A04EB8309FB6A0B
:10404000002B40F00181BD6AC84609EB0B03002636
:1040500043454ED1D94413E01AF0020FD1D0237852
:1040600099467B629B0004EB89093B6163683B6274
:10407000FB6A002B7CD1BD6ABBF1000F50D15E46BC
:104080001AF0050F0CBF02230123FB62BB6909EB89
:10409000430B0AF00203BB62D945B9D019F8021BE1
:1040A00019F8013C54F82380704B984502D3704BAB
:1040B00098453BD37B69002B45D0386A0EF0E6FA71
:1040C000002840D0E8468AB06A466A4B53613B6A92
:1040D000C2E906314FF400731384674B42F8103F76
:1040E00000234FF412516548023D02F0A7F8C5467F
:1040F000D2E718F8012BFB6254F82200FEF7E0F833
:10410000D7F884200130FB6A42B1D7F88820964264
:104110003EBFD7F8842022F816000136054497E701
:104120001AF004061CBFD944FE6AA9E77B6923B1D3
:10413000386A0EF0ABFA0028C4D11AF0010F05D18D
:10414000FB6AED1AA8E7BB6A002BA5D04046FEF734
:10415000B7F8D7F884304BB1D7F888309E423FBFCC
:10416000431CD7F8842022F816300136054493E723
:10417000BBF1000F6ED01AF004066ED0D8460026B0
:1041800007F148005A464946FFF716F9BB69D9447A
:104190005B00FB60BB6909EB4303BB600AF00203F1
:1041A0007B60BB684B456BD11AF0020F637808BF88
:1041B0004FEA580106EB030218BF00211AF0010F65
:1041C000D2B240F0E1801AF0040F14BF4046002044
:1041D0003B626270A0702046E170FA693969FB6A3F
:1041E0009847051EFFF614AF7B6A4146FA6907F14E
:1041F000480023703B6A84F802B06370BB69E370C7
:10420000FB6A9847B0F10008C0F2EC80BB6A4846F0
:10421000FA69A3EB0B013B69C91AFB68C91AFB6A6F
:1042200098470028C0F2E080A8444FF0000B07F147
:10423000380A08EB0005B345C0F2A8800021FA69EE
:10424000FB6A08469847E3E65E464FF0000807F130
:10425000380097E75E46D84698E7B04696E700BF35
:104260007F6E0160CD6D0160FB6D0160C84701602C
:10427000C89801609A6E01600400000184500160DA
:1042800019F8021B594B19F8015C54F825009842A3
:1042900002D3574B984216D37B692BB1386A0EF084
:1042A000F5F900287FF47DAF7B68002B4AD00F2EF4
:1042B0003ED950494FF489634F4A50480EF0CDFC27
:1042C0004FF489617EE67B692BB1386A0EF0DEF926
:1042D00000287FF466AF1AF0010F0BD00F2E27D9FC
:1042E000444940F23E43444A44480EF0B6FC40F292
:1042F0003E4167E61AF0040F3FF453AFB8F10F0FD9
:1043000009D93F4940F241433B4A3C480EF0A5FCE5
:1043100040F2414156E608F1280307F1300208F166
:10432000010103EB020808F8105C5FFA81F838E736
:1043300006F1280307F13002711C9E1806F8205C74
:10434000CEB22EE7B8F10F0F09D92D4940F24B43F9
:10435000294A2A480EF081FC40F24B4132E608F12E
:10436000280307F1300208F1010008F1020803EB0D
:10437000020C07F158035FFA88F853FA80F00CF842
:10438000101C00F8105C0CE7002021E71BF80A3035
:1043900054F8239087F83730D7F88430FBB133F8DE
:1043A0001B80FA69012107F13700FB6A9847002852
:1043B0001ADB0544B8F1000F06D14846FDF780FF2F
:1043C00000F101081FFA88F8FA6941464846FB6A7D
:1043D0009847002808DB05440BF1010B2BE7D7F8C1
:1043E0008480DEE7454613E6054611E6C8470160CE
:1043F000C89801603D6F0160CD6D0160FB6D01608B
:104400005C6F0160014B1860704700BFB429202029
:1044100030B5002587B0044600950595CDE9030128
:1044200003A9054800F0DCF9DDE904309842B8BF83
:10443000255407B030BD00BFDB260160F8B50F463C
:1044400000293BD00668012230460EF0B6F901463D
:10445000044630460EF079F9C3070DD4AF23184A4D
:10446000184919480EF0F9FB394618480EF0F5FBCB
:10447000AF2113480EF0EAFB214630460EF07BF9DF
:1044800025180022304629460EF05FF92D1AAC425D
:104490000BD0B7230A4A0E490B480EF0DEFB394613
:1044A0000C480EF0DAFBB721E3E7214630460EF068
:1044B00068F92146BDE8F8400EF0A5BAF8BD00BF86
:1044C0008D6F0160AE6F0160FB6D0160BF6F0160B9
:1044D000F76F01601D7001602DE9F843066814460E
:1044E0000F464B1EB268B2F5004F34BF04210821BD
:1044F0003B400FD0C7F10009581E09EA070949459A
:1045000028BF494618420CD11F46DCB90025284671
:10451000BDE8F8838F4213D82146BDE8F8430EF07A
:10452000B4BA2F494FF4A2732E4A2F480EF095FBD0
:104530002E480EF092FB4FF4A2712A480EF086FB33
:104540009946E2E7B2EBD40FE0D9E3191046591AC5
:104550000EF03DF9014630460EF094F980460028F1
:10456000D4D0B36809EBC0053046B3F5004F34BF73
:10457000042308231D447B1E7F4235441D443D40D7
:10458000A5EB09052C4429460EF017F9804504F1E6
:104590000704074624F00704A4EB06044FEAE404EA
:1045A00008D20246414630460EF0A6F94146304652
:1045B0000EF0E7F9394630460EF0DDF83844844213
:1045C00008D23946304622460EF096F9214630464A
:1045D0000EF0D7F90122394630460EF0D2F896E7B0
:1045E000597001608D6F0160FB6D01607470016036
:1045F000B2F5802FF8B510D2042A28D841494FF4DB
:10460000F973414A41480EF028FB41480EF025FB62
:104610004FF4F9713C480EF019FB0823D21ACC1D57
:10462000114424F0070421F00701091B17294FEA60
:10463000D1060ED8374940F2FB13334A33480EF007
:104640000CFB33480EF009FB40F2FB11E2E70423B8
:10465000E4E70027046031463046A660E7600EF0CC
:10466000C0F801218500024630461B350EF0AFF838
:10467000ED082844B04234D804F10C013B463846DA
:104680009A423BDA2A4620460021771B0EF091F829
:10469000002320461A4619460EF062F819462046B5
:1046A00001220EF06EF83A4629460EF082F82B46AB
:1046B0000022294620460EF053F8314620460EF0DF
:1046C00078F83B463146204600220EF049F8314644
:1046D000204601220EF055F82946BDE8F8400EF0BC
:1046E00050B90D494FF40373074A08480EF0B5FA64
:1046F00007480EF0B2FA4FF403718BE7013341F82B
:10470000040FBDE7917001608D6F0160FB6D01606A
:10471000B2700160CB700160F4700160F0B50246C8
:104720000168084E00200A270B4601311C78355DD0
:104730006D0701D41360F0BD07FB0043A3F1300007
:10474000F2E700BF016B01602DE9F84F15469A466C
:10475000D3788046214A0F466F2B12F803B00BF036
:10476000030B29D024D8582B0CBF10260A26DDF8BD
:1047700028903246002340463946FEF703FE092AB8
:10478000D4B21ED83034B045E4B277F1000709F84E
:10479000014D01D3D14511D82B789B0605D5082EA4
:1047A00015D1AB7843F00803AB704846BDE8F88FED
:1047B00003F0F703702BD7E70826D8E780460F46AB
:1047C000D7E7BBF1010F0CBF37345734DBE7102EAE
:1047D000EBD1AB7843F01003E6E700BF016B01605B
:1047E0002DE9F04F82469FB016461C4600250391E6
:1047F000307810B9284600F085BD731C2528069333
:1048000006D00399D0470028C0F27C8501351FE20D
:104810001822002110A80BF0F3FE7378252B00F06E
:10482000BC800023711C98469E469C4618460F4645
:1048300011F8012B2B2A00F0DF8000F2D680202A0D
:1048400000F0DD80232A00F0DD802BB19DF8483098
:1048500043F040038DF84830B8F1000F05D09DF8C3
:10486000483043F020038DF84830BEF1000F05D0EA
:104870009DF8483043F010038DF84830BCF1000F2C
:1048800005D09DF8483043F008038DF8483028B132
:104890009DF8483043F004038DF848309DF84830C7
:1048A00003F04401442903D16FF386138DF8483097
:1048B0009DF848302A2A0E9743F080038DF848303F
:1048C00040F0A5809DF8493043F001038DF8493050
:1048D0007B1C1A782E2A9DF849200CBF012100214B
:1048E00061F341028DF849200CD15A1C0E925A787E
:1048F0002A2A40F09C809DF84920023342F00402AD
:104900008DF849201A786C2A00F0BD8000F29F8053
:10491000682A00F0A5806A2A00F0BE804C2A00F0C8
:10492000C38013F8012B782A06938DF84B2000F2F0
:1049300005816D2A00F2C580692A00F2FF80572A9E
:1049400000F2DE80412A04D0A2F14503022B00F2DE
:10495000F58002F0DF029DF84A300421A2F14108FF
:1049600061F302039DF84910D8F100028DF84A3036
:1049700042EB080262F3C7110A06CBB28DF8491068
:1049800000F11B8103F07802182A40F005816FF3D3
:10499000C6038DF849300023F4E0B21C8DF84B308B
:1049A00006929DF84930DF0740F1098154F8042B45
:1049B000002A049208DA9DF8482042F004028DF89B
:1049C0004820049A52420492580740F1008154F85A
:1049D000047B002F80F2FF809DF849306FF3410384
:1049E0008DF849304FF0FF37F5E02D2A0DD0302AF1
:1049F0007FF42BAF01231AE74FF0010C17E74FF0BC
:104A0000010E14E74FF0010811E701200FE70EA88F
:104A1000FFF784FE0E9BBB423FF45BAF9DF848203E
:104A20001390C00F60F341028DF8482051E70EA8A3
:104A3000FFF774FE9DF848301490C3F3400242EA39
:104A4000D07262F341038DF848300E9B5AE7742A06
:104A500026D07A2A7FF465AF9DF8492006210CE024
:104A60005A78682A9DF8492006D1012161F3C602CF
:104A700002338DF8492054E7022161F3C6028DF814
:104A8000492001334DE75A786C2A9DF8492001D11D
:104A90000421EBE70321F0E79DF849200521ECE72D
:104AA0009DF849200721E8E7BDF8482022F4F042AC
:104AB00022F0020242F4804242F00202ADF84820A5
:104AC000DFE76E3AD3B201229A4040F282431A42A3
:104AD0009DF8493039D112F0240F61D1D1072DD57D
:104AE00003F078039DF84A200321A3F1400C61F301
:104AF0000202DCF100038DF84A2043EB0C0341E095
:104B0000A2F158010120C9B200FA01F111F4624F7B
:104B10007FF41FAF40F6010319429DF849301AD1C6
:104B200011F4043F0AD09DF84A2060F3020203F01A
:104B300078038DF84A20402B7FF42DAF9DF8483044
:104B400043F001038DF8483025E79DF84A20022103
:104B500061F30202EBE79DF84A10022003F07803AC
:104B600060F30201402B8DF84A1002BF9DF84810F7
:104B700041F001018DF84810632A7FF40CAF003B2F
:104B800018BF01239DF84820C2F340010B4363F393
:104B900041028DF8482004E713F0380FCED1FAE631
:104BA0009DF84A20032113F0780F61F3020214BF2D
:104BB000012300238DF84A20E4E70123E2E79DF971
:104BC0004820002AB4BF139A4FF0FF32FBE6990742
:104BD0007FF508AF149F00239DF84910CDE91333EA
:104BE0009DF84A3003F00702042A07D18A0705D44A
:104BF0009DF94920002AACBF06270D2703F00703C3
:104C0000C1F3C301012B33D1CB1E042B04D8DFE841
:104C100003F0214646212100236801294FEAE3726F
:104C2000CDE910321CD19DF94030DA17CDE91032B0
:104C300004349DF8483007939B0750D0069B3246BA
:104C4000039950460DF082FF0028C0F25B830544B3
:104C5000069ECDE554F8043BDA17CDE91032E8E7BB
:104C60000229E5D11AB243F3C033CDE91023DFE7BF
:104C7000022B24D1CB1E042B04D8DFE803F018103C
:104C800010181800012954F8043B4FF0000214D00A
:104C90000229CDE91032CCD19BB21093C9E7073479
:104CA00024F00704F4E80223CDE91023C1E754F807
:104CB000043B109300231193BBE7DBB2CDE7042B39
:104CC00008D1073424F00704D4E900230834CDE9DF
:104CD0001023AEE7032BACD154F8043BDDE79DF87D
:104CE0004BB0BBF1780FB3D8BBF1570F49D8BBF12C
:104CF000250F00F09180BBF1240FA9D9BBF1410F22
:104D000003D0ABF14502022AA2D8DDE91012002A35
:104D1000C0F23681079B180700F13581C3F30019F3
:104D20004FEA4919C2F30A50C2F31302002840F0B7
:104D30002D8151EA020614BF01260026D202BBF1E2
:104D4000460F42EA515208BF4FF0660BC90242EAD1
:104D5000E07C40EA010E5EEA0C0CCDE90C1200F09A
:104D60009D81002E40F049810D9AA0F2FE3842F05C
:104D700000420D9200204FF0050CDDE90C120646B2
:104D800055E1ABF15802202A3FF662AF01A050F87E
:104D900022F000BF1F4F0060514C0060514C00607A
:104DA000514C0060514C0060514C0060514C00600F
:104DB000514C0060514C00600B4D0060514C006044
:104DC000A34E0060B74E00600B4D00600B4D0060BD
:104DD0000B4D0060514C0060B74E0060514C0060BC
:104DE000514C0060514C0060514C0060594F0060C4
:104DF0001F4F0060254F0060514C0060514C006017
:104E00001F4E0060514C00601F4F0060514C00600D
:104E1000514C00601F4F006003995846F2E4002F88
:104E2000109E3ADB394630460BF05AFC3718002EFC
:104E30003FF40EAF4FF000099DF84A3013F0100216
:104E4000059200F05482023013F04003DDF84C80EC
:104E50000893404418BF149BCDF81C8018BFC0189D
:104E6000049B002B40F35E829DF848201B1A5007DC
:104E7000C2F3800B049300F15582510640F1458244
:104E8000B9F1000F07D003994846D0470028C0F277
:104E900039820135D946302238E23046FDF710FA22
:104EA000C4E7109B4FF000090DF15D0717AE01201C
:104EB0008DF85C30C0E7079B1E0754BFC3F3001991
:104EC0004FF02B09DDE9102358BF4FEA4919002B99
:104ED00006DA52424FF02D0963EB4303CDE910236C
:104EE0000DF1750312AA009317ABDDE91001FFF76E
:104EF0002BFC0646002F0CDB0DF175039DF84820B6
:104F00009B1B6FF386129F428DF8482001D9FB1A34
:104F10001393002E3FF49CAE0DF175075BE04FF04C
:104F20000009DDE71098002800F0DC810DF1750321
:104F300012AA00214FF00009009317ABFFF704FC01
:104F4000BDF84A30064603F0EF0343F4F04343F064
:104F50001003ADF84A30CDE7109B07293FF678AE35
:104F6000DFE801F00C04060C08080C0C1D706FE65D
:104F70001D806DE6EA17C3E9005269E61D6067E629
:104F80004FF02D09CEE64FF02B09CBE640F2FF762D
:104F9000B0422FD10BF101039D480A43DBB2C35C41
:104FA00003F003031ED1012B0BBF492369234E21BC
:104FB0006E210CBF462266228DF85C300DF15F0732
:104FC0009DF848308DF85D106FF386138DF85E20E4
:104FD0008DF8483017AEB81BB9F1000F3FF42CAF75
:104FE000013029E7012B15BF6E234E23612141219A
:104FF0001A46E1E70026A1E6013849185241002A85
:10500000FADACDE90C12AFE64908404608F101088A
:1050100041EAC2715208B2F1333FF5D20CFB02FEF5
:1050200000F10208A1FB0C12013E0120724418F1AC
:10503000020FE9DB08B1CDE90C12B8F1000FDDE990
:105040000C212EDCC8F1040008F11C08A0F1200C92
:10505000C24021FA00F301FA08F80BF0DF0021FA50
:105060000CFC42EA08020893472842EA0C0239D1B4
:10507000F31C01DBB7422BDAABF10203002F5FFA1E
:1050800083FB7EDD9DF84800013F800679D43B1EFE
:1050900018BF0123059307F101082DE04FF0000828
:1050A00068E602320CA808F1FF3806F1010641F16A
:1050B0000001CDE90C210DF01AFDDDE90C2192185B
:1050C00008F1FF3849410029F9DACDE90C21B4E7AC
:1050D0009DF84830BF1B990651D43B1E18BF0123D1
:1050E000059304E00023BBF1660F0593D3D117EBC2
:1050F00006084FF0660B46D4B8F1100FA8BF4FF06A
:10510000100810204FF000610B900020CDE90E0137
:10511000DDE90E03B8F1000F38D11218089941EB00
:105120000301B1F1805F3FD2CDE90C21079BBBF1B8
:10513000660F03F0200240F0B480002E3FDC3021E7
:105140008DF85C10002A65D1002F40F3AC812E222F
:105150008DF85D2086B172429DF84A10BA42A8BF10
:105160003A46002AA7EB02071392D4BF002201227D
:1051700062F345118DF84A100DF15E0837E0002307
:10518000AEE7002386E74FF00008BAE7400809922F
:1051900008F1FF3840EAC3705B08CDE90E030EA8A2
:1051A0000DF0A5FC099AB3E752080CA8013642EAB3
:1051B000C1724908CDE90C210DF099FCB6E70DF15B
:1051C0005C080B99002909DD0BA90CA807920DF0CA
:1051D000A6FC013E079A08F8010BF2D113969AB982
:1051E000002F40F35E812E2108F8011B0026002FBE
:1051F00019DD0B9A002A16DD0BA90CA80DF08FFC07
:10520000013F08F8010BF2E72E2208F8012BEDE729
:10521000006B01602E228DF85D20002EACD0002F97
:1052200099DC0DF15E08059B002B4ED11497474683
:105230000BF0DF02452A23D1002E87F800B0BABF59
:1052400076422D232B23632E7B70C9BF6421BA1CA9
:10525000FA1CB6FBF1F3C8BF01FB13664FF00A015D
:10526000C8BF03F13000B6FBF1F3C8BFB87003F15B
:10527000300001FB13631746303307F8020B5370FD
:10528000139B002B2CDC149B002BD4BF0023012389
:105290009DF84A2063F3861200238DF84A203B7064
:1052A00098E60BA90CA807920DF039FC079A302854
:1052B0008DF85C0018BF06F1FF3612B9002F40F3DD
:1052C000F2802E228DF85D2056E7474608F1FF3820
:1052D00017F8012C302AF8D02E2A08BF4746A7E736
:1052E0000123D5E7714F814605207E1FA4E51A07EB
:1052F00048BF0130A8E5104609920399D04700281D
:10530000099A05DA1FB0BDE8F08F2022DDF810B051
:1053100059460BF1FF3B0029EDDC049BCDF810B0A2
:105320002B445D1AB9F1000F05D003994846D047C8
:105330000028E7DB0135089B002B77D09DF9493029
:10534000002B28DB3346DFF8689118789B46013341
:1053500019F8002052073FD49DF84A30AE1B98063A
:105360005E4407D4424608F1FF38002A3BDC079B25
:1053700033449E1A9BF800002E280AD10399D04787
:105380000028BFDBB8F1000F06F1010631DC0BF19C
:10539000010B5D4638E0B14699F80000C84609F1B6
:1053A0000109702813D1AE1B4644149D3544AB1B34
:1053B000002B33DC3B464246039950460DF0C6FBBA
:1053C00000289FDB3044049E0546064464E00399B0
:1053D000D0470028E0DA95E705930399D0470028E5
:1053E000059BB2DA8EE703993020D0470028B9DA5E
:1053F00088E70399302008F1FF38D047C0E70399C8
:10540000D0470028FFF67EAF2878A846013519F866
:1054100000305907F3D4A6EB0B06C5E703993020FB
:10542000D0470028FFF66EAF0136C0E79DF84A303E
:10543000DA0601D41B0706D503993020D04700288F
:10544000FFF660AF0135059B3BB103999DF84B001A
:10545000D0470028FFF656AF0135A84406E003996F
:105460003020D0470028FFF64DAF0135A8EB0503EB
:10547000002BF4DC3B463246039950460DF066FBA8
:105480000028FFF63FAF28449DE703992020D0472E
:105490000028FFF637AF0135731B002BF5DCFFF753
:1054A000D7BB1646BFE60DF15D08BCE6247101606E
:1054B000016B01602DE9F34180460E461546002739
:1054C0002A4601A940460DF058FB044602463146E3
:1054D00001982744FDF770FF2D1B264401D0002CB6
:1054E000EED1394640460DF068FB48B106494923E4
:1054F0000648074A0DF0B1FB492105480DF0A6FB0F
:10550000384602B0BDE8F0814D710160FB6D01606D
:10551000257101602DE9F34180460D4616460027AE
:10552000324601A940460DF05DFB04462DB102460E
:10553000284625440199FDF73FFF361B274401D03B
:10554000002CEDD1394640460DF06BFB48B10749C0
:105550008E230748074A0DF080FB8E2105480DF089
:1055600075FB384602B0BDE8F08100BF4D710160A7
:10557000FB6D01602571016038B50D4620220021C8
:1055800004460BF03DF8EB680022E361AB68A361D1
:105590002B6823626B68A26263622A6923B1591E79
:1055A000194208BF42F0010222610122002104F1E8
:1055B0002C000FF04EF848B105492E230548064A45
:1055C0000DF04BFB2E2104480DF040FB38BD00BF11
:1055D0004D710160FB6D0160567101602DE9F04F66
:1055E00089B0002704468846BA4605970797CDE953
:1055F0000123436A8B4253D300F114064FF010038A
:10560000EFF3118B83F31288BFF36F8F3046D946C7
:1056100007F092FF58B994234A4A4B494B480DF082
:105620001CFB31464A480DF018FB94215EE03046E1
:1056300007F09EFF079A2AB1394620460DF0ECFB91
:105640000023079306A920460DF014FB0699054692
:1056500041452ED322682046236A13F8221003EB1B
:10566000820A21F0030103F82210424621680DF05E
:1056700025FBE3682060984216D00025304607F0ED
:1056800069FF40B389F31188BFF36F8F059929B182
:10569000A2690AB12046904700230593002DADD1A1
:1056A000504609B0BDE8F08F236943F00803236139
:1056B000E3E718B120460DF01BFBDFE7DDE901321F
:1056C000134336D003910EF0A8FF039988BB3046F0
:1056D00007F040FF68B9C2231A4A1E491B480DF063
:1056E000BCFA31461C480DF0B8FAC22115480DF03D
:1056F000ADFA8BF31188BFF36F8FDDE9012304F15D
:105700002C0008F047FA05464FF01003EFF311891B
:1057100083F31288BFF36F8F304607F00DFF002828
:105720003FF479AFB5FA85F5304607F021FF6D09F2
:10573000A4E707AB05AA204627680DF0F6FA054650
:105740009CE700BF7C710160A9710160FB6D016085
:10575000BE710160D6710160ED7101602DE9F0410B
:105760000446C36908460E4604F1140598470746E7
:105770004FF01003EFF3118883F31288BFF36F8F9C
:10578000284607F0D9FE68B99423194A19491A48DE
:105790000DF063FA294619480DF05FFA9421144878
:1057A0000DF054FA284607F0E3FE33783A462046D7
:1057B00043F00103337061680DF080FA60602046A9
:1057C0000DF045FB284607F0C5FE58B9C223084A2C
:1057D0000B4909480DF041FA29460A480DF03DFAF7
:1057E000C221DCE788F31188BFF36F8FBDE8F08139
:1057F0007C710160A9710160FB6D0160BE71016087
:10580000D6710160ED7101602DE9F843044600F1A5
:1058100014074FF01003EFF3118883F31288BFF3DE
:105820006F8F384607F088FE054668B99423344ADE
:10583000344935480DF011FA394634480DF00DFA67
:1058400094212F480DF002FA384607F091FE2369A3
:10585000A26813F0080F02D163689A4200D9636A04
:105860009B1A002B3DD0216A11F8223001EB8209EE
:1058700013F0030038D0022803D151F82260B60893
:1058800005D1D8071DD4E369484698470646A16864
:10589000324620460DF012FA3146A06020460DF047
:1058A0001BFA384607F056FE00BBC223144A1849BB
:1058B00015480DF0D2F9394616480DF0CEF9C2213F
:1058C000BFE743F00203484601F82230A568E369C8
:1058D00098472946024620460DF0F0F90025A060C1
:1058E000DFE71D46A946DCE70546FBE788F311889C
:1058F000BFF36F8F002D8CD14846BDE8F88300BF01
:105900007C710160A9710160FB6D0160BE71016075
:10591000D6710160ED7101602DE9F0410446C36963
:1059200008460D4604F11406984707464FF0100349
:10593000EFF3118883F31288BFF36F8F304607F0BF
:10594000FBFD68B99423264A264927480DF085F9BE
:10595000314626480DF081F9942121480DF076F961
:10596000304607F005FE2B786FF300032B70236998
:105970009B0705D5E268236A03EB82039D4220D191
:105980002B786FF341032B70D4E90231994204D193
:105990003A4620460DF092F9A060394620460DF0B7
:1059A0009BF9304607F0D6FD80B9C2230C4A104956
:1059B0000D480DF052F931460E480DF04EF9C22156
:1059C000CBE72B6867F39F032B60EAE788F3118826
:1059D000BFF36F8F04F12C00BDE8F04108F09CB8D4
:1059E0007C710160A9710160FB6D0160BE71016095
:1059F000D6710160ED710160F8B54FF01003EFF35F
:105A0000118683F31288BFF36F8F4D4A5369DC030D
:105A100027D4536913F4803323D1C2F88430BFF301
:105A20004F8FD2F8803043F6E074C3F3C900C3F35C
:105A30004E335B0103EA0407014647EA81750139E9
:105A4000C2F86052F9D2203B13F1200FF2D1BFF31C
:105A50004F8F536943F480335361BFF34F8FBFF3CC
:105A60006F8F384B384A1A604FF40042374B1A6038
:105A7000374B9A6922F4405242F480529A615A6933
:105A800042F000725A619A6C9006FCD4314AD36895
:105A900023F01F0343F01303D3601368002BFCDAD9
:105AA0002D4805F031FA2A4B1A6922F0070242F01C
:105AB00001021A619A6CD103FCD45A6922F4E052B3
:105AC0005A61234B9A6C9207FCD45A69204C42F4D9
:105AD00040725A619A6942F440229A615A6922F0EE
:105AE00000725A61A56C15F02005FBD1636A284647
:105AF0001A4923F040036362636A23F03F03636241
:105B0000A36B23F48023A363A36B23F0FC7343F400
:105B10002013A36305F03CFA1049284605F0CCF9A0
:105B20000F4A094902200EF064F9636D23F0030364
:105B3000636586F31188BFF36F8F2846F8BD00BFF9
:105B400000ED00E04441202000366E01404120205D
:105B500000C00F40000008407851016000389C1CD4
:105B60009C2B202030B5002289B00F490F480EF041
:105B7000FDFD0022002300240D4D0E49284600940F
:105B8000CDE906230E234FF40062CDE90334CDE9BD
:105B90000144094B07F018FC084928460EF043FD64
:105BA000204609B030BD00BF015D0060683920208B
:105BB000E034202040472020E55F00600272016051
:105BC0002DE9F047044607464FF00109DFF8508001
:105BD00014B93846BDE8F08794FAA4F5B5FA85F50E
:105BE00009FA05F32E0108EB05156FEA030A24EA0A
:105BF00003042B7B002BEBD058F806301B694BB904
:105C000046440422284607EA0A077368196800F028
:105C1000EFFADDE7284698470028D9D1F0E700BF22
:105C2000045101602DE9F047DFF8B49080462D4C17
:105C30000F46A9EB04039F2B0BD92B494FF48B7311
:105C40002A4A2B480DF009F84FF48B7127480CF0C5
:105C5000FDFF28480DF02BF9064660B300252846C5
:105C6000BDE8F087237B73B12368DB680BB1204666
:105C7000984723681B69B3B96368042220461968F2
:105C800000F0B6FA013610344C4518D91A4940F2E2
:105C90002313164A16480CF0E0FF18480CF0DDFFFD
:105CA00040F22311D2E7204698470028E4D00AFAB0
:105CB00006F31D43E6E705464FF0010AE4E7D1D3BA
:105CC000B8F1000FCBD0002DC8D02846FFF778FFE1
:105CD0000546002FF7D00021642009F08BFBF2E786
:105CE0001451016004510160377201600A72016051
:105CF000FB6D0160243C20205B7201607C720160BE
:105D0000014807F009BF00BFD82C2020014B53F8F1
:105D1000200070479451016008B5034608462BB136
:105D2000044A136000F070FD002008BD6FF01500FC
:105D3000FBE700BFB829202010B5044C237813B925
:105D4000034807F0E9FE0123237010BD9C42202088
:105D5000D82C202010B5044608480DF0A8F85CB1F6
:105D6000074BBFF35B8F53E8001F013943E8001274
:105D7000002AF8D1BFF35B8F10BD00BF1C3C202070
:105D8000203C20200020064BBFF35B8F014653E8E8
:105D9000000F43E80012002AF9D1BFF35B8F704770
:105DA0001C3C202070B5FFF7EDFF104C0546104E4F
:105DB000B44219D90F494FF4E7730F4A0F480CF05A
:105DC0004CFF0F480CF049FF4FF4E7710A480CF004
:105DD0003DFF63685B792BB123685B6813B129468B
:105DE000204698471034E3E7F3D370BD04510160B7
:105DF000145101605B7201600A720160FB6D016009
:105E00007C72016010B5044C04492046FFF7B4FBD6
:105E1000034B1C6010BD00BFC82B202080510160C7
:105E2000143C202008B5084A00234FF47A71074833
:105E30001370074A1360074A1360FFF76DFFBDE850
:105E40000840FFF7DFBF00BF9D422020C92E016040
:105E50001C3C2020203C2020014600220023014839
:105E6000FFF7BCBBC82B20200148FFF7CDBC00BF0B
:105E7000C82B2020024B01461868FFF74DBD00BF1C
:105E8000143C202001480CF0EFBF00BFC82B20209D
:105E90002D4B70B51878002854D0FFF7E5FF054664
:105EA00060B32A4BBFF35B8F53E8001F013943E80F
:105EB0000012002AF8D1264CBFF35B8F254EB44266
:105EC00018D925494FF4E173244A25480CF0C5FE42
:105ED00024480CF0C2FE4FF4E17120480CF0B6FEED
:105EE00063685B7923B12368294620461B6898477D
:105EF0001034E4E7F4D32846FFF7BCFF1A4B1B4CE1
:105F00001B68002B12DD0EF00DFC0A220023FDF7AA
:105F100039FAD4E90032C01A40F2E93361EB0201E8
:105F2000984271F1000101D3FFF73CFFD4E9003240
:105F300013F57A7342F10002C4E90032BDE8704003
:105F4000FFF7A0BF70BD00BF9C422020203C202056
:105F500004510160145101605B7201600A720160BA
:105F6000FB6D01607C7201601C3C202060392020A8
:105F700070B5154D297829BB144C0120144EFFF73C
:105F800051FEB44217D9134940F28513124A1348FF
:105F90000CF063FE12480CF060FE40F285110E48D2
:105FA0000CF054FE63685B791BB1236820469B6844
:105FB00098471034E5E7F5D3FFF76AFF0028FBD1D7
:105FC00001232B7070BD00BF9D4220200451016051
:105FD000145101605B7201600A720160FB6D016027
:105FE0007C720160304B2DE9F047304FFB1A1B09E2
:105FF0000BD12F494FF452732E4A2F480CF02DFE2F
:106000004FF452712B480CF021FE00210846FFF797
:1060100009FE044640B34FF4FA784FF0000909F046
:106020001BFA264B186030B1254B1B68092B02DD8B
:10603000244807F071FD0025DFF888A044B1204610
:10604000FFF7BEFD044618B94FF0FF384FF0FF3997
:10605000FFF71EFF064628B95DB942464B4650463B
:1060600007F098FD3546E9E74FF0FF384FF0FF396C
:10607000D5E70D4D08E0F0D22B689B691BB10022DB
:106080002846114698471035BD42F4D90E494FF4C1
:106090004F73084A08480CF0E0FD0C480CF0DDFD99
:1060A0004FF44F71AEE700BF04510160145101601D
:1060B0009B7201600A720160FB6D0160183C202038
:1060C000203C2020D82C20205B7201607C72016073
:1060D00013B52B480CF0EBFE2A4B1B78002B34D069
:1060E0004FF01003EFF3118483F31288BFF36F8F27
:1060F000254807F021FA68B99423244A2449254801
:106100000CF0ABFD204924480CF0A7FD94211F485A
:106110000CF09CFD1C4807F02BFAFFF7B9FE1A485B
:1061200007F018FA58B9C223184A1C4919480CF04C
:1061300094FD15491A480CF090FDC221E7E784F35D
:106140001188BFF36F8F02B010BD164B1B68002B78
:10615000F9D050B9002200231348CDE9002342F2C0
:106160001072002309F05EFEEDE70A28EBD10E481D
:106170000EF008FB0D4802B0BDE8104007F0CCBCA3
:10618000203C20209D422020103C20207C7101607A
:10619000A9710160FB6D0160BE710160D671016083
:1061A000ED710160183C202068392020D82C202077
:1061B000064B10B504461B6898472146A06004486A
:1061C000FFF7CCFABDE81040FFF782BFB8292020C6
:1061D000C82B2020044A054B9B1AB1EBD30F34BFC8
:1061E00052F83100002070476C500160045101608A
:1061F0000E4BC31A1B11013310B5DBB248B90C4961
:10620000DE230C480C4A0CF028FDDE210A480CF075
:106210001DFD4468237143689A7101224368196027
:1062200043685A71BDE81040FFF786BD0451016014
:106230003B730160FB6D0160037301602DE9F04F5A
:10624000C1F3CB448FB0C1F349260D469046994621
:1062500017340590002E3DD04FF0040B09AF4FF0DE
:106260000A0A002231460BAB4046CDF808B0019730
:10627000CDF800A00D920796CDE90B22FDF78EFE1A
:10628000C0F3090318191E4663F35225069320F044
:1062900007008008FFF7E0FD044608B3069B1030B6
:1062A000002207990B9040460C930BAB0D92CDF852
:1062B00000A0114ACDE9017BFDF770FE00280FDA3E
:1062C0000E4949230E480F4A0CF0C7FC49210D48DE
:1062D0000CF0BCFC24F007008008FFF7BDFD04466D
:1062E00066F352254B46059920462A460FB0BDE875
:1062F000F04F0CF01ABE00BFFF2E016088730160E2
:10630000FB6D01605B7301602DE9F04F87B00446BF
:106310000F4693469846DDE91269DDE9105AAEB1A1
:106320001021334652460020CDF80090CDF814904D
:10633000FDF716FC011E0ADA20496823204A21488D
:106340000CF08BFC68211E480CF080FC314604F0F8
:1063500007040BF0070B1C4B05F11700E400039139
:1063600003EA4123084444EA8B1420F007001C434D
:10637000164B800803EAC5431C43FFF76DFD054635
:1063800090B18EB13346524603991030CDF800904B
:10639000FDF7E6FB002807DA08498223084A094886
:1063A0000CF05BFC8221CEE7434622463946284664
:1063B00007B0BDE8F04F0CF0B8BD00BF87730160B7
:1063C0005B730160FB6D016000FE07000000F87F59
:1063D0000EB403B503AB0146054853F8042B0193F3
:1063E0000CF0CAFD02B05DF804EB03B0704700BFCB
:1063F00011640060CA0605D48B064CBF02490349EC
:10640000FFF7E6BF704700BF5193016091730160D1
:1064100038B54B6805460C461A68CB689A4202D1DB
:1064200008460CF0B0FD6368BFF35B8F53E8002FA4
:10643000511C43E800100028F8D1BFF35B8FA3681C
:106440009D5463681A68E3689A4209D9054979231B
:106450000548064A0CF001FC792104480CF0F6FBD3
:10646000002038BDC3730160FB6D0160947301604F
:106470002DE9F04F89B09A4604460D469DF848B084
:10648000169E0692DDE913730593159B0493BBF1E9
:10649000000F00F0858006F0080306F0020907935C
:1064A0000CF02BFD0246002849D08D492046FFF70D
:1064B0008FFF8046B9F1000F08D016F0440F40D18D
:1064C0002A4688492046FFF783FF804406F00103EF
:1064D00053B1854B2046854953F82B20844B002A25
:1064E00008BF1A46FFF774FF06F00803002B54D0CC
:1064F000804B2046804953F82B20FFF769FF054663
:10650000069B2BB11A467D492046FFF761FF0544E3
:10651000BAF1000F05D0524679492046FFF758FFDF
:1065200005444544002F49D1049B002B60D1F3075B
:1065300000F1CF8031462046FFF75CFFC3E0804684
:10654000B8E7704B18680028BFD06F4B4FF47A79CA
:106550004FF461614FF03C0C1B68B5FBF3F5B5FBE4
:10656000F0F300FB135509FB05F5B3FBF1F2B5FBA6
:10657000F0FE01FB123100FB1E55B1FBFCF309FBE1
:1065800005F50CFB1311B5FBF0F5009120465F49B2
:10659000CDE901E5FFF71CFF97E706F00805AFE737
:1065A000BAF1010F06D1EFB9049B002B00F08B80EC
:1065B00000251DE0002FF7D0554814E055483B4614
:1065C000224655490CF031F800280EDA53494FF4B1
:1065D00000735348534A0CF040FB4FF4007151488C
:1065E0000CF034FB4B485D46E9E7049B002B66D07A
:1065F000DFF83481DFF83491049F4FF0000A314610
:106600002046102F28BF1027FFF7F4FE554543DC26
:10661000059B4FF0010A494620461A78FFF7D8FE3D
:106620001AF0070F03D141462046FFF7D1FE574528
:1066300039D9059B4946204613F80A20FFF7C8FEC2
:106640000AF1010ABAF1100FEAD14FF0000A3849F5
:106650002046FFF7BDFE5246059B20469A5C354B0F
:10666000995C11F0970F344908BF2E22FFF7B0FE56
:106670000AF1010ABAF1100F1AD01AF0070F03D16C
:1066800041462046FFF7A4FE57455246E4D841460E
:106690002046FFF79DFEEBE7414620460AF1010A3E
:1066A000FFF796FEB2E725492046FFF791FEC7E7C0
:1066B000059B3B440593049BDB1B04939CD1BBF1DE
:1066C000000F7FF434AF204609B0BDE8F04F0CF066
:1066D0005ABC074A20460549FFF77AFE2AE700BF61
:1066E000F8730160FC730160A451016021740160C2
:1066F000F3730160B8510160247401602A74016071
:106700002E7401602C3C2020283C20200574016060
:10671000A12F016011640060792F01603374016062
:10672000FB6D016094730160447401603C7401600E
:1067300046740160016B016048740160427401603D
:106740002DE9F0410F8886B04B6805460C4690460F
:106750008E68C7F382175BB1144A9B1A43F3CF01CB
:10676000002920DB2078C0F3C200FFF733FD034689
:106770002146608851F8102BC0F3CB000097C2F37C
:106780004922002A01EB02044FF0000208BF002159
:10679000CDE90308CDE9011428463146FFF768FE2C
:1067A00006B0BDE8F0810023E2E700BF6C50016055
:1067B00042F20F73114A8B4273B5044628BF0B4651
:1067C0000568052168460BF0A9FF636806460B22A1
:1067D00028465B680A490CF0C2FB6368324669468A
:1067E00028465B680CF0BBFB63681B2205495B68AD
:1067F00028460CF0B4FB02B070BD00BFD091016020
:10680000677401604B74016000210123064A9042C5
:1068100006D8064A01B901231360054B186070477A
:10682000400801215B00F2E740420F00283C202095
:106830002C3C2020014B002019607047443C202054
:10684000024B012202481A700CF09DBB9F4220208F
:10685000E85101600148FFF7ABBF00BFE85101609C
:10686000064B10B50C461868FFF750FA0F22034686
:1068700021460348BDE81040184700BF443C202093
:10688000E8510160F8B50D4604464618054FB4427C
:1068900001D12846F8BD14F8011BBB6801485B68AC
:1068A0009847F4E7D848016008B507480DF08BFE1B
:1068B00048B9064970230648064A0CF0CEF9702103
:1068C00004480CF0C3F908BDD8480160D1740160D8
:1068D000FB6D0160937401602DE9F04705460E469B
:1068E00017461A4CDFF86880DFF86890444528D9CD
:1068F000194940F2D353194A19480CF0AEF9194816
:106900000CF0ABF940F2D35114480CF09FF96268D7
:10691000D9F824309A4212D3A36983B190782979A7
:10692000884205D13A4631462846BDE8F047184727
:106930005279012A03D13A463146284698472434F1
:10694000D4E7E4D36FF08500BDE8F087B02D2020B8
:10695000D42D2020483C202037750160057501604A
:10696000FB6D01607C720160154B2DE9F041154F04
:106970005E6A154BBB421ED9144940F2B653144A05
:1069800014480CF06AF914480CF067F940F2B6515B
:106990000F480CF05BF95D68B5420AD31C6944B13D
:1069A00095F802C00579AC4503D12346BDE8F04116
:1069B00018472433DEE7EED36FF08500BDE8F081A1
:1069C000483C2020D42D2020B02D20203775016098
:1069D00005750160FB6D01607C720160024B002255
:1069E0001A605A60704700BF033D20202DE9F04136
:1069F00005460E461746124CDFF8488044451AD922
:106A0000114940F20363114A11480CF026F911486C
:106A10000CF023F940F203610C480CF017F963699C
:106A20000BB92434EAE73A4631462846984700280D
:106A3000F7D1BDE8F081F2D36FF08500F9E700BF30
:106A4000B02D2020D42D2020377501600575016000
:106A5000FB6D01607C720160430670B520D0134B62
:106A6000134CA3421ED9134940F2EF33124A134884
:106A70000CF0F3F812480CF0F0F840F2EF310E4849
:106A80000CF0E4F8196A00221E7F0439D5B2AE4238
:106A900001D82433E5E7013211F832508542F5D1AF
:106AA000012001E0EED3002070BD00BFB02D2020FA
:106AB000D42D20203775016005750160FB6D0160E4
:106AC0007C720160094808B50378C3F341130A33A7
:106AD00050F823303BB100F1080200F11001984753
:106AE000C043C00F08BD1846FCE700BF483C20204B
:106AF0007FB5074B04AA4FF4825106480593022341
:106B000004930CF05BFA4FF0FF3007B05DF804FB24
:106B10005A750160F450016080B500AF88B06A46D4
:106B2000064B4FF4C251C2E905300323044842F832
:106B3000103F0CF043FA0020BD4680BD7F75016018
:106B4000F4500160F8B500AF054602F08BFD10F17E
:106B5000780F04461AD16C4688B06A46154B4FF43C
:106B6000C4511548C2E90535032342F8103F0CF023
:106B700025FAA546284600240CF023FA0F4AD2F83D
:106B8000C43023EA0003C2F8C43010E00028F1D07A
:106B90006E4688B06A460A4B4FF4C2510648C2E9B5
:106BA0000535032342F8103F0CF008FAB54620469D
:106BB000BD46F8BD9A750160F4500160483C202044
:106BC000BB75016004282DE9F74F04460F46DFF836
:106BD000D4901AD0012834D1DFF8CC8098F8B9309D
:106BE0007BB3324D00F0A8FF4D453AD9304940F211
:106BF000BD43304A30480CF030F830480CF02DF8E6
:106C000040F2BD412B480CF021F8FFF7E7FEE3E727
:106C100002EBC60601920AF1010A307902F022FD68
:106C2000834630790CF0CDF9D8F8C430BBF1000FB1
:106C3000019A23EA0003C8F8C43016DA002388F862
:106C4000B9301A4D4D451FD9194940F2E943194A47
:106C500019480CF002F819480BF0FFFF40F2E94127
:106C6000D0E7EBD22A6A4FF0000A2B7F5FFA8AF650
:106C7000B342CDD82435B7E7EB681BB13A4621467D
:106C8000284698472435DDE7F6D3074B1B6A2BB11E
:106C90003946204603B0BDE8F04F184703B0BDE8C1
:106CA000F08F00BFD42D2020483C2020B02D202084
:106CB0003775016005750160FB6D01607C720160D4
:106CC0002DE9F04182B0C4B2884600AF2046FC7185
:106CD000FFF7C2FE054608B314F07F0F1F4E03D026
:106CE00096F8BA30002B36D0B8F1000F1BD0E8462A
:106CF00088B06A461A4B4FF4C6511A48C2E90534A7
:106D0000032342F8103F0CF059F9C546F87902F018
:106D100051FBF36913B1F91D08209847284608373D
:106D2000BD46BDE8F081E84688B06A460E4B4FF498
:106D3000C6510C48C2E90534032342F8103F0CF059
:106D40003DF9C546F87902F06DFBF369002BE5D0FB
:106D5000F91D0920E1E71D46E0E700BF483C20207F
:106D6000DD750160F4500160F0750160F0B583B02D
:106D70000446384D00AF807838702379627943EA51
:106D800002237B80E37803F003033B710CF019F9D5
:106D9000D5F8C4300646184209D0A478204600F041
:106DA000ADFE2046FFF7CEFE96200DF0A7FC38463C
:106DB00002F044FA10F1780F3B782DD16C4688B080
:106DC0006A4625492548C2E9051303234FF4C451F7
:106DD00042F8103F0CF0F2F8A546387802F0D0FBEC
:106DE00010F1780F2DD16C4688B03B786A461C496B
:106DF0001A48C2E9051303234FF4C45142F8103F67
:106E00000CF0DCF8A546D5F8C4300120334385F8F2
:106E1000B900C5F8C43011E00028DED06C4688B057
:106E20006A4610490D48C2E9051303234FF4C251C5
:106E300042F8103F0CF0C2F80020A5460C37BD46C2
:106E4000F0BD0028DFD06C4688B03B786A46064922
:106E5000E8E700BF483C202005760160F45001605F
:106E60004C760160287601606C7601602DE9F04770
:106E7000924D04460E461746AB69C3B9207800F020
:106E80001F00012876D0022800F0DC8000BB94F9B6
:106E900000103A68002963782EDA062B0CD0082BF4
:106EA00025D0ABB9537001231370022303E1984737
:106EB0000028E3D100200DE06388190A0A1F8C46E0
:106EC000012A05D9072903D8DAB26B6A1C781CB9E4
:106ED0006FF01500BDE8F0875D78654503D182420B
:106EE00000F0E48001302344F0E71B78E3E095F8FC
:106EF000BA3013700123DEE0052B11D0092BE7D146
:106F000063886E6A002B32D1FFF768FD638885F8CD
:106F1000BA30EB69002BCDD0694903209847C9E707
:106F2000A07802F043F90028C4D0D1E77378042B8D
:106F300010D0052B11D0022B04D177796388BB4286
:106F400008BF012033781E443378002BEED100288F
:106F5000BED0D9E796F80380F4E76388BB42F1D14D
:106F6000B8F1000FEED13046FFF700FFEAE7FF2748
:106F7000B846E9E795F8BA30D7F800C0002BA7D09B
:106F80006F6AA28894F804E03B46187800289FD0E6
:106F90005978022904D193F80480F04500F29280D8
:106FA0000344F2E78CF800308CF80130316081E75F
:106FB0001F4493E00B2B8BD100264FF0FF08B24605
:106FC000C14606E07B78042B0FD0052B21D03B78FF
:106FD0001F443B78002BF5D1EB6913B151460720D4
:106FE0009847002E7FF466AF72E797F80280A38877
:106FF00097F803909845EAD163889945E7D1B8F1AD
:10700000070F1CD805EB0803BA46012683F8BB908E
:10701000DDE7A3884345DAD1A3784B450AD0BE7893
:10702000304600F06BFD3046FFF78CFDB0FA80F67D
:107030007609CCE73846FFF799FE0646C7E7BA4619
:107040000026C4E794F900206378002A18DA002BA0
:107050007FF43EAF24793F682046FFF7FDFC00280F
:107060003FF436AF630604D095F8BA30002B3FF4F6
:107070002FAF3946204602F041FA00237B7014E717
:10708000012B08D0032B7FF423AF6388002B7FF400
:107090001FAF012103E0618800297FF419AFA088A8
:1070A000FFF70EFE00287FF405AF11E702293B60D1
:1070B0007FF41BAF5B883360FCE600BF483C2020B8
:1070C000023D202094F9000063780028BFF672AFDB
:1070D000002B3FF467AF0A2B7FF4FAAE3B78002B0E
:1070E0003FF4F6AE797804297FF462AFB9788A422A
:1070F0007FF45EAF072A96BF5219002392F8BB3087
:107100008CF80030F6E600BF2DE9F04F83B004465E
:1071100090469946042500AF124E4FF0030A79605D
:107120004B4642467968204602F0ECFA10F10B0F0C
:10713000834612D1C7F800D088B06A464FF4C451D4
:107140000948C2E9056442F810AF0BF037FFD7F8E1
:1071500000D008F015F8013DE2D158460C37BD4685
:10716000BDE8F08F8D760160F450016013B5134CCB
:10717000237DCBB9E26801ABA16880200192FFF7C3
:10718000C3FF019AA3681344A360E3689B1AE360FA
:1071900043B93AB12369E2889A4203DD9B0601D1E3
:1071A0000123237502B010BD002380201A46194622
:1071B000237502B0BDE8104002F0A4BA483C20207C
:1071C00070B500238AB00D4606460193002867D1AA
:1071D00000293FD108220B460DEB02010CF009F803
:1071E000002803DA802002F0E5F824E0374C029A08
:1071F000BDF80E302260039A2575626004F13802F2
:10720000A2609DF90820002AC4E9035515DB802BF4
:107210000ED92F4B08AA4FF482512E48099302230E
:1072200008930BF0CBFE802002F0C4F82846DAE782
:107230001BB1C4E903330AB070BDFFF743FC00285B
:10724000D0D0E28823699A42D4BFE260E360FFF7BE
:107250008DFFF0E71D4C01ABD4E90212002A05DCDA
:1072600002460BF0C6FF0028E5DABBE70BF0C1FFD2
:10727000002804DA802002F09DF83046B3E7019A36
:10728000A3681344A360E3689B1AE360002BD2D188
:1072900004F13803A360FFF715FC0028D7D1A1E75C
:1072A000802807D1094BDA68002AD0D11B7D002B3A
:1072B000CDD1C0E7084940F287130848084A0BF0CF
:1072C000CCFC40F2871106480BF0C0FC483C202063
:1072D000B4760160F450016072700160FB6D016072
:1072E00005750160054B064A586200209A62054AFE
:1072F000DA62054A1A63054A9A617047483C2020C1
:107300006D6E006069690060ED690060D9680060B9
:10731000094B10B593F8B84054B900F001F918B909
:10732000BDE81040FFF7E4BBFFF7DCFF204610BDCF
:107330006FF07700FBE700BF483C20202DE9F041CB
:10734000044686B0474D4FF0FF324FF0FF334648BA
:1073500006F084FA95F8B86096B1444B6FF0770464
:1073600004AA4FF4845105930223414804930BF07F
:1073700025FE3D4806F042FB204606B0BDE8F08100
:107380003C482C62E86102F049FB01F0CFFE041E8C
:10739000EFDB00F0F5FB041EEBDB402368468DF8C5
:1073A0000460ADF802308DF8006001F047FF041E64
:1073B000DFDB802768468DF8007001F03FFF041E78
:1073C000D7DB2D49304602F0FDFA041ED1DB2A49F5
:1073D000384602F0F7FA041ECBDB284CDFF8A08019
:1073E000444523D9274940F21363274A27480BF025
:1073F00034FC27480BF031FC40F2136122480BF0BB
:1074000025FC276A0026227FF3B29A4201D8243451
:10741000E6E707EBC30257F833100136107902F0A4
:10742000D1FA0028EFD04FF0FF34A2E7E9D30020D3
:1074300002F0A6F8041E9CDBD5F8C430802043F08F
:107440000103C5F8C43002F09BF8041E91DBD5F8A7
:10745000C430002443F48033C5F8C430012385F8D8
:10746000B83086E7483C2020982C2020CD7601605B
:10747000F4500160C56B0060C1710060B02D202028
:10748000D42D20203775016005750160FB6D01600A
:107490007C72016030B5204B8BB003F1100505AA5A
:1074A0001868083353F8041C1446AB4203C4224640
:1074B000F6D11B781022002101A8237009F0A0F852
:1074C00012220021154809F09BF8102101A803F0B1
:1074D000E9FA00281DDD082801AB1049B8BF0820D3
:1074E00009381A18002012F8013F0AAC01300231A5
:1074F00004EB131403F00F03082803F1280314F816
:10750000144C6B4401F8024C13F8143C01F8013C94
:10751000E9D102480BB030BDFB760160A0422020CB
:107520002DE9F04F8BB0914C00AF00264FF0011BBE
:10753000B2463546B046237843B902348C4B9C4260
:10754000F3D18A482C37BD46BDE8F08F6378052B10
:1075500005D8DFE803F0B30403B3074EA046237851
:107560001C44E8E7E378002BF9D1A378002B3BD14A
:10757000804D814B03E06A68944230D024359D42AF
:107580000ED97E494FF48F737D4A7E480BF065FB20
:107590007D480BF062FB4FF48F7179480BF056FB7E
:1075A000E9D36D4688B06A46784BC2E905340323B7
:1075B00042F8103F00234FF4C2517548FEF73EFEDB
:1075C000AD46744B7B6202233B627148002307F196
:1075D00020024FF48251FEF731FE0020B2E7AB6883
:1075E00013B15146204698470AF1010A5FFA8AFA18
:1075F000B5E7002D60D1684B7B6202233B6200231C
:1076000007F120024FF482516148FEF717FED8E7D8
:10761000296AA07801EBC2010B79984205D00132AA
:107620002B7F9A42F4D35D4BE6E74FF00109E078F7
:107630005FFA89F300F003003875207994F805C0EB
:1076400040EA0C20788294F90200002826DA09F139
:1076500010004FF0010C0CFA00F010EA0B0F25D1CE
:1076600043F08000387407F11000FA60C7E9013177
:1076700001F0BEFD7B68D7E90212B8B93A7C12F07E
:10768000800FA2700A714FF0010217BF103302FA87
:1076900009F2DBB29A404BEA020B60E7012000FAE4
:1076A00009F010EA0B0F01D11846DBE709F10109D7
:1076B000B9F1100FBBD1B2E70022B1E7032E2AD1F6
:1076C000FFF7E8FE8146A8B1FAF7FAFDF86088B145
:1076D0003348FAF7F5FDFA68824217D0314B7B62E6
:1076E00002233B62002307F120024FF48251284815
:1076F000FEF7A4FD23786FF00200E218001B04EBF4
:107700005303D0420ED50136F6B228E74946A01CF5
:10771000FBF752FEEEE7002EECD1B8F1000F19D1C5
:10772000214B69E7197820395E290AD91F49B3230B
:10773000134A14480BF091FA1D480BF08EFAB3214E
:107740002BE74FF0000102F8011C13F8011902F8B1
:10775000021DD6E7A4EB080388F804A088F80230DD
:10776000C3F3072388F80330CDE700BFE82C2020BF
:10777000AF2D2020B02D2020D42D20203775016082
:107780000C770160FB6D01607C72016042770160E3
:10779000EC500160A978016062770160A377016015
:1077A000FB760160C07701608C7801600B78016026
:1077B00042780160084B00211A4610B51C788442BB
:1077C00004D15C6814B102EB811010BD013140336B
:1077D0000429F3D10020F8E7103D20202DE9F043E3
:1077E00083B0044650F8283C00AF10F82C5C1033EE
:1077F00011D1036950F8202C13F002064ED00ABBB9
:1078000013F0040304D11A4619462846FFF77CFCFE
:10781000002344F8283C54F8283C10330ED054F888
:10782000186C5EB154F81C8C54F8149C0CF0F5FEE6
:1078300000286FD021463F480CF029FF0C37BD4689
:10784000BDE8F08350F8241C3B1D2846FFF75CFC84
:1078500098B16E4688B06A46374BD561C2E90530AB
:10786000042342F8103F00234FF401513348FEF740
:10787000E5FCB5466FF01503CBE77A6854F8243C75
:10788000134444F8243C54F8203C9B1A44F8203C10
:1078900054F81C3C134444F81C3CBCE750F8241C2E
:1078A0003B1D284601F084FF88B1E84688B06A464F
:1078B000214BD561C2E90530042342F8103F4FF453
:1078C000015133461D48FEF7B9FCC546D2E77E6834
:1078D00054F8243C334444F8243C54F8203C9B1B8B
:1078E00044F8203C54F81C3C334444F81C3C002E23
:1078F0008ED0284602F098F8B6FBF0F303FB106632
:10790000002E85D154F8203C002B81D0284601F070
:10791000E7FF80E744F8180CA4F1100006F0FCF82B
:1079200054F8283C8C3389D04A4641462846B04713
:1079300084E700BFA0392020D7780160FC500160A7
:107940004B1E012B70B5064688B00D4618D8FFF7C0
:1079500031FF0446B0B9012D12D101AB012202A9B9
:10796000304601F025FF019B002BF6D10F4A07920C
:10797000022206924FF4825106AA0D48FEF75EFCE1
:1079800008B070BD0CF049FE04F12C0108B1012DC6
:1079900005D1084608B0BDE87040FFF71FBF054895
:1079A00008B0BDE870400CF072BE00BFF478016012
:1079B000FC500160A03920202DE9F04F8BB0054626
:1079C000164600AFB960FB600BF038FB002840F0B2
:1079D00086804FF01003EFF3118283F31288BFF318
:1079E0006F8FDFF800A181467A60002300225046A5
:1079F00006F0D0F80346E8B9DFF8ECB04FEA891892
:107A00000BEB8919D9F8044014F1100F31D16E46EF
:107A100088B06A463549C2E90515032142F8101FAE
:107A20004FF4C2513248FEF709FCB546504606F005
:107A300073F814E009F101090AF1400AB9F1040FE1
:107A4000D3D12C4B7B6202233B626FF00B040023EB
:107A500007F120024FF482512548FEF7EFFB7B68C7
:107A600083F31188BFF36F8F20462C37BD46BDE8E6
:107A7000F08F3B6DBA68C9F81430FB68C9F8100084
:107A80002846C9F83C307B6D0BF80850C9F818300F
